{
  "contractName": "FirstFlashLoan",
  "abi": [
    {
      "inputs": [
        {
          "internalType": "address",
          "name": "_addressProvider",
          "type": "address"
        },
        {
          "internalType": "address",
          "name": "_arbitrageContract",
          "type": "address"
        }
      ],
      "stateMutability": "nonpayable",
      "type": "constructor"
    },
    {
      "anonymous": false,
      "inputs": [
        {
          "indexed": true,
          "internalType": "address",
          "name": "_from",
          "type": "address"
        },
        {
          "indexed": true,
          "internalType": "address",
          "name": "_assetAddress",
          "type": "address"
        },
        {
          "indexed": false,
          "internalType": "uint256",
          "name": "amount",
          "type": "uint256"
        }
      ],
      "name": "LogWithdrawal",
      "type": "event"
    },
    {
      "anonymous": false,
      "inputs": [
        {
          "indexed": true,
          "internalType": "address",
          "name": "previousOwner",
          "type": "address"
        },
        {
          "indexed": true,
          "internalType": "address",
          "name": "newOwner",
          "type": "address"
        }
      ],
      "name": "OwnershipTransferred",
      "type": "event"
    },
    {
      "anonymous": false,
      "inputs": [
        {
          "indexed": false,
          "internalType": "address",
          "name": "oldArbitrageContract",
          "type": "address"
        },
        {
          "indexed": false,
          "internalType": "address",
          "name": "newArbitrageContract",
          "type": "address"
        }
      ],
      "name": "UpdatedArbitrageContract",
      "type": "event"
    },
    {
      "inputs": [],
      "name": "ADDRESSES_PROVIDER",
      "outputs": [
        {
          "internalType": "contract ILendingPoolAddressesProvider",
          "name": "",
          "type": "address"
        }
      ],
      "stateMutability": "view",
      "type": "function"
    },
    {
      "inputs": [],
      "name": "LENDING_POOL",
      "outputs": [
        {
          "internalType": "contract ILendingPool",
          "name": "",
          "type": "address"
        }
      ],
      "stateMutability": "view",
      "type": "function"
    },
    {
      "inputs": [],
      "name": "owner",
      "outputs": [
        {
          "internalType": "address",
          "name": "",
          "type": "address"
        }
      ],
      "stateMutability": "view",
      "type": "function"
    },
    {
      "inputs": [],
      "name": "renounceOwnership",
      "outputs": [],
      "stateMutability": "nonpayable",
      "type": "function"
    },
    {
      "inputs": [
        {
          "internalType": "address",
          "name": "newOwner",
          "type": "address"
        }
      ],
      "name": "transferOwnership",
      "outputs": [],
      "stateMutability": "nonpayable",
      "type": "function"
    },
    {
      "inputs": [
        {
          "internalType": "address",
          "name": "_assetAddress",
          "type": "address"
        }
      ],
      "name": "withdraw",
      "outputs": [],
      "stateMutability": "nonpayable",
      "type": "function"
    },
    {
      "stateMutability": "payable",
      "type": "receive"
    },
    {
      "inputs": [
        {
          "internalType": "address[]",
          "name": "assets",
          "type": "address[]"
        },
        {
          "internalType": "uint256[]",
          "name": "amounts",
          "type": "uint256[]"
        },
        {
          "internalType": "uint256[]",
          "name": "premiums",
          "type": "uint256[]"
        },
        {
          "internalType": "address",
          "name": "initiator",
          "type": "address"
        },
        {
          "internalType": "bytes",
          "name": "params",
          "type": "bytes"
        }
      ],
      "name": "executeOperation",
      "outputs": [
        {
          "internalType": "bool",
          "name": "",
          "type": "bool"
        }
      ],
      "stateMutability": "nonpayable",
      "type": "function"
    },
    {
      "inputs": [
        {
          "internalType": "address",
          "name": "_asset",
          "type": "address"
        },
        {
          "internalType": "uint256",
          "name": "_amount",
          "type": "uint256"
        }
      ],
      "name": "flashloan",
      "outputs": [],
      "stateMutability": "nonpayable",
      "type": "function"
    },
    {
      "inputs": [
        {
          "internalType": "address",
          "name": "_newArbitrageContract",
          "type": "address"
        }
      ],
      "name": "setArbitrageContract",
      "outputs": [],
      "stateMutability": "nonpayable",
      "type": "function"
    },
    {
      "inputs": [],
      "name": "test",
      "outputs": [
        {
          "internalType": "address",
          "name": "",
          "type": "address"
        }
      ],
      "stateMutability": "view",
      "type": "function"
    }
  ],
  "bytecode": "0x60c06040523480156200001157600080fd5b5060405162002089380380620020898339818101604052810190620000379190620002b1565b818073ffffffffffffffffffffffffffffffffffffffff1660808173ffffffffffffffffffffffffffffffffffffffff16815250508073ffffffffffffffffffffffffffffffffffffffff16630261bf8b6040518163ffffffff1660e01b8152600401602060405180830381865afa158015620000b8573d6000803e3d6000fd5b505050506040513d601f19601f82011682018060405250810190620000de9190620002f8565b73ffffffffffffffffffffffffffffffffffffffff1660a08173ffffffffffffffffffffffffffffffffffffffff16815250505062000132620001266200017b60201b60201c565b6200018360201b60201c565b80600160006101000a81548173ffffffffffffffffffffffffffffffffffffffff021916908373ffffffffffffffffffffffffffffffffffffffff16021790555050506200032a565b600033905090565b60008060009054906101000a900473ffffffffffffffffffffffffffffffffffffffff169050816000806101000a81548173ffffffffffffffffffffffffffffffffffffffff021916908373ffffffffffffffffffffffffffffffffffffffff1602179055508173ffffffffffffffffffffffffffffffffffffffff168173ffffffffffffffffffffffffffffffffffffffff167f8be0079c531659141344cd1fd0a4f28419497f9722a3daafe3b4186f6b6457e060405160405180910390a35050565b600080fd5b600073ffffffffffffffffffffffffffffffffffffffff82169050919050565b600062000279826200024c565b9050919050565b6200028b816200026c565b81146200029757600080fd5b50565b600081519050620002ab8162000280565b92915050565b60008060408385031215620002cb57620002ca62000247565b5b6000620002db858286016200029a565b9250506020620002ee858286016200029a565b9150509250929050565b60006020828403121562000311576200031062000247565b5b600062000321848285016200029a565b91505092915050565b60805160a051611d2b6200035e60003960008181610810015281816108b90152610d12015260006102470152611d2b6000f3fe6080604052600436106100955760003560e01c8063920f5c8411610059578063920f5c8414610160578063b4dcfc771461019d578063f0328291146101c8578063f2fde38b146101f1578063f8a8fd6d1461021a5761009c565b80630542975c146100a157806351cff8d9146100cc578063715018a6146100f55780638da5cb5b1461010c5780638e5f5f57146101375761009c565b3661009c57005b600080fd5b3480156100ad57600080fd5b506100b6610245565b6040516100c391906110ac565b60405180910390f35b3480156100d857600080fd5b506100f360048036038101906100ee919061110f565b610269565b005b34801561010157600080fd5b5061010a61047b565b005b34801561011857600080fd5b50610121610503565b60405161012e919061114b565b60405180910390f35b34801561014357600080fd5b5061015e6004803603810190610159919061119c565b61052c565b005b34801561016c57600080fd5b50610187600480360381019061018291906112ed565b6106c4565b6040516101949190611404565b60405180910390f35b3480156101a957600080fd5b506101b26108b7565b6040516101bf9190611440565b60405180910390f35b3480156101d457600080fd5b506101ef60048036038101906101ea919061110f565b6108db565b005b3480156101fd57600080fd5b506102186004803603810190610213919061110f565b610980565b005b34801561022657600080fd5b5061022f610a78565b60405161023c919061114b565b60405180910390f35b7f000000000000000000000000000000000000000000000000000000000000000081565b610271610b10565b73ffffffffffffffffffffffffffffffffffffffff1661028f610503565b73ffffffffffffffffffffffffffffffffffffffff16146102e5576040517f08c379a00000000000000000000000000000000000000000000000000000000081526004016102dc906114b8565b60405180910390fd5b60008073ffffffffffffffffffffffffffffffffffffffff168273ffffffffffffffffffffffffffffffffffffffff16141561036a574790503373ffffffffffffffffffffffffffffffffffffffff166108fc829081150290604051600060405180830381858888f19350505050158015610364573d6000803e3d6000fd5b50610412565b8173ffffffffffffffffffffffffffffffffffffffff166370a08231306040518263ffffffff1660e01b81526004016103a3919061114b565b602060405180830381865afa1580156103c0573d6000803e3d6000fd5b505050506040513d601f19601f820116820180604052508101906103e491906114ed565b905061041133828473ffffffffffffffffffffffffffffffffffffffff16610b189092919063ffffffff16565b5b8173ffffffffffffffffffffffffffffffffffffffff163373ffffffffffffffffffffffffffffffffffffffff167f0ec497a8ae5b1ba29c60470ef651def995fac3deebbdcc56c47a4e5f51a4c2bd8360405161046f9190611529565b60405180910390a35050565b610483610b10565b73ffffffffffffffffffffffffffffffffffffffff166104a1610503565b73ffffffffffffffffffffffffffffffffffffffff16146104f7576040517f08c379a00000000000000000000000000000000000000000000000000000000081526004016104ee906114b8565b60405180910390fd5b6105016000610b9e565b565b60008060009054906101000a900473ffffffffffffffffffffffffffffffffffffffff16905090565b610534610b10565b73ffffffffffffffffffffffffffffffffffffffff16610552610503565b73ffffffffffffffffffffffffffffffffffffffff16146105a8576040517f08c379a000000000000000000000000000000000000000000000000000000000815260040161059f906114b8565b60405180910390fd5b6000600167ffffffffffffffff8111156105c5576105c4611544565b5b6040519080825280602002602001820160405280156105f35781602001602082028036833780820191505090505b5090506000600167ffffffffffffffff81111561061357610612611544565b5b6040519080825280602002602001820160405280156106415781602001602082028036833780820191505090505b509050838260008151811061065957610658611573565b5b602002602001019073ffffffffffffffffffffffffffffffffffffffff16908173ffffffffffffffffffffffffffffffffffffffff168152505082816000815181106106a8576106a7611573565b5b6020026020010181815250506106be8282610c62565b50505050565b6000600160009054906101000a900473ffffffffffffffffffffffffffffffffffffffff1673ffffffffffffffffffffffffffffffffffffffff1663a4457dc18b8b600081811061071857610717611573565b5b905060200201602081019061072d919061110f565b6040518263ffffffff1660e01b8152600401610749919061114b565b600060405180830381600087803b15801561076357600080fd5b505af1158015610777573d6000803e3d6000fd5b5050505060005b8a8a90508110156108a557600087878381811061079e5761079d611573565b5b905060200201358a8a848181106107b8576107b7611573565b5b905060200201356107c991906115d1565b90508b8b838181106107de576107dd611573565b5b90506020020160208101906107f3919061110f565b73ffffffffffffffffffffffffffffffffffffffff1663095ea7b37f0000000000000000000000000000000000000000000000000000000000000000836040518363ffffffff1660e01b815260040161084d929190611627565b6020604051808303816000875af115801561086c573d6000803e3d6000fd5b505050506040513d601f19601f82011682018060405250810190610890919061167c565b5050808061089d906116a9565b91505061077e565b50600190509998505050505050505050565b7f000000000000000000000000000000000000000000000000000000000000000081565b6000600160009054906101000a900473ffffffffffffffffffffffffffffffffffffffff16905081600160006101000a81548173ffffffffffffffffffffffffffffffffffffffff021916908373ffffffffffffffffffffffffffffffffffffffff1602179055507ff7e6ad6c7bf9e6749ccca9cb73373a4bcf7eacc749cdc5465e16010c4cb8cf9181836040516109749291906116f2565b60405180910390a15050565b610988610b10565b73ffffffffffffffffffffffffffffffffffffffff166109a6610503565b73ffffffffffffffffffffffffffffffffffffffff16146109fc576040517f08c379a00000000000000000000000000000000000000000000000000000000081526004016109f3906114b8565b60405180910390fd5b600073ffffffffffffffffffffffffffffffffffffffff168173ffffffffffffffffffffffffffffffffffffffff161415610a6c576040517f08c379a0000000000000000000000000000000000000000000000000000000008152600401610a639061178d565b60405180910390fd5b610a7581610b9e565b50565b6000600160009054906101000a900473ffffffffffffffffffffffffffffffffffffffff1673ffffffffffffffffffffffffffffffffffffffff166347fb0bed6040518163ffffffff1660e01b8152600401602060405180830381865afa158015610ae7573d6000803e3d6000fd5b505050506040513d601f19601f82011682018060405250810190610b0b91906117c2565b905090565b600033905090565b610b998363a9059cbb60e01b8484604051602401610b37929190611627565b604051602081830303815290604052907bffffffffffffffffffffffffffffffffffffffffffffffffffffffff19166020820180517bffffffffffffffffffffffffffffffffffffffffffffffffffffffff8381831617835250505050610db0565b505050565b60008060009054906101000a900473ffffffffffffffffffffffffffffffffffffffff169050816000806101000a81548173ffffffffffffffffffffffffffffffffffffffff021916908373ffffffffffffffffffffffffffffffffffffffff1602179055508173ffffffffffffffffffffffffffffffffffffffff168173ffffffffffffffffffffffffffffffffffffffff167f8be0079c531659141344cd1fd0a4f28419497f9722a3daafe3b4186f6b6457e060405160405180910390a35050565b600030905060003090506000845167ffffffffffffffff811115610c8957610c88611544565b5b604051908082528060200260200182016040528015610cb75781602001602082028036833780820191505090505b50905060006040518060200160405280600081525090506000805b8751811015610d0f576000848281518110610cf057610cef611573565b5b6020026020010181815250508080610d07906116a9565b915050610cd2565b507f000000000000000000000000000000000000000000000000000000000000000073ffffffffffffffffffffffffffffffffffffffff1663ab9c4b5d868989878988886040518863ffffffff1660e01b8152600401610d759796959493929190611a21565b600060405180830381600087803b158015610d8f57600080fd5b505af1158015610da3573d6000803e3d6000fd5b5050505050505050505050565b6000610e12826040518060400160405280602081526020017f5361666545524332303a206c6f772d6c6576656c2063616c6c206661696c65648152508573ffffffffffffffffffffffffffffffffffffffff16610e779092919063ffffffff16565b9050600081511115610e725780806020019051810190610e32919061167c565b610e71576040517f08c379a0000000000000000000000000000000000000000000000000000000008152600401610e6890611b1e565b60405180910390fd5b5b505050565b6060610e868484600085610e8f565b90509392505050565b606082471015610ed4576040517f08c379a0000000000000000000000000000000000000000000000000000000008152600401610ecb90611bb0565b60405180910390fd5b610edd85610fa3565b610f1c576040517f08c379a0000000000000000000000000000000000000000000000000000000008152600401610f1390611c1c565b60405180910390fd5b6000808673ffffffffffffffffffffffffffffffffffffffff168587604051610f459190611c78565b60006040518083038185875af1925050503d8060008114610f82576040519150601f19603f3d011682016040523d82523d6000602084013e610f87565b606091505b5091509150610f97828286610fc6565b92505050949350505050565b6000808273ffffffffffffffffffffffffffffffffffffffff163b119050919050565b60608315610fd657829050611026565b600083511115610fe95782518084602001fd5b816040517f08c379a000000000000000000000000000000000000000000000000000000000815260040161101d9190611cd3565b60405180910390fd5b9392505050565b600073ffffffffffffffffffffffffffffffffffffffff82169050919050565b6000819050919050565b600061107261106d6110688461102d565b61104d565b61102d565b9050919050565b600061108482611057565b9050919050565b600061109682611079565b9050919050565b6110a68161108b565b82525050565b60006020820190506110c1600083018461109d565b92915050565b600080fd5b600080fd5b60006110dc8261102d565b9050919050565b6110ec816110d1565b81146110f757600080fd5b50565b600081359050611109816110e3565b92915050565b600060208284031215611125576111246110c7565b5b6000611133848285016110fa565b91505092915050565b611145816110d1565b82525050565b6000602082019050611160600083018461113c565b92915050565b6000819050919050565b61117981611166565b811461118457600080fd5b50565b60008135905061119681611170565b92915050565b600080604083850312156111b3576111b26110c7565b5b60006111c1858286016110fa565b92505060206111d285828601611187565b9150509250929050565b600080fd5b600080fd5b600080fd5b60008083601f840112611201576112006111dc565b5b8235905067ffffffffffffffff81111561121e5761121d6111e1565b5b60208301915083602082028301111561123a576112396111e6565b5b9250929050565b60008083601f840112611257576112566111dc565b5b8235905067ffffffffffffffff811115611274576112736111e1565b5b6020830191508360208202830111156112905761128f6111e6565b5b9250929050565b60008083601f8401126112ad576112ac6111dc565b5b8235905067ffffffffffffffff8111156112ca576112c96111e1565b5b6020830191508360018202830111156112e6576112e56111e6565b5b9250929050565b600080600080600080600080600060a08a8c03121561130f5761130e6110c7565b5b60008a013567ffffffffffffffff81111561132d5761132c6110cc565b5b6113398c828d016111eb565b995099505060208a013567ffffffffffffffff81111561135c5761135b6110cc565b5b6113688c828d01611241565b975097505060408a013567ffffffffffffffff81111561138b5761138a6110cc565b5b6113978c828d01611241565b955095505060606113aa8c828d016110fa565b93505060808a013567ffffffffffffffff8111156113cb576113ca6110cc565b5b6113d78c828d01611297565b92509250509295985092959850929598565b60008115159050919050565b6113fe816113e9565b82525050565b600060208201905061141960008301846113f5565b92915050565b600061142a82611079565b9050919050565b61143a8161141f565b82525050565b60006020820190506114556000830184611431565b92915050565b600082825260208201905092915050565b7f4f776e61626c653a2063616c6c6572206973206e6f7420746865206f776e6572600082015250565b60006114a260208361145b565b91506114ad8261146c565b602082019050919050565b600060208201905081810360008301526114d181611495565b9050919050565b6000815190506114e781611170565b92915050565b600060208284031215611503576115026110c7565b5b6000611511848285016114d8565b91505092915050565b61152381611166565b82525050565b600060208201905061153e600083018461151a565b92915050565b7f4e487b7100000000000000000000000000000000000000000000000000000000600052604160045260246000fd5b7f4e487b7100000000000000000000000000000000000000000000000000000000600052603260045260246000fd5b7f4e487b7100000000000000000000000000000000000000000000000000000000600052601160045260246000fd5b60006115dc82611166565b91506115e783611166565b9250827fffffffffffffffffffffffffffffffffffffffffffffffffffffffffffffffff0382111561161c5761161b6115a2565b5b828201905092915050565b600060408201905061163c600083018561113c565b611649602083018461151a565b9392505050565b611659816113e9565b811461166457600080fd5b50565b60008151905061167681611650565b92915050565b600060208284031215611692576116916110c7565b5b60006116a084828501611667565b91505092915050565b60006116b482611166565b91507fffffffffffffffffffffffffffffffffffffffffffffffffffffffffffffffff8214156116e7576116e66115a2565b5b600182019050919050565b6000604082019050611707600083018561113c565b611714602083018461113c565b9392505050565b7f4f776e61626c653a206e6577206f776e657220697320746865207a65726f206160008201527f6464726573730000000000000000000000000000000000000000000000000000602082015250565b600061177760268361145b565b91506117828261171b565b604082019050919050565b600060208201905081810360008301526117a68161176a565b9050919050565b6000815190506117bc816110e3565b92915050565b6000602082840312156117d8576117d76110c7565b5b60006117e6848285016117ad565b91505092915050565b600081519050919050565b600082825260208201905092915050565b6000819050602082019050919050565b611824816110d1565b82525050565b6000611836838361181b565b60208301905092915050565b6000602082019050919050565b600061185a826117ef565b61186481856117fa565b935061186f8361180b565b8060005b838110156118a0578151611887888261182a565b975061189283611842565b925050600181019050611873565b5085935050505092915050565b600081519050919050565b600082825260208201905092915050565b6000819050602082019050919050565b6118e281611166565b82525050565b60006118f483836118d9565b60208301905092915050565b6000602082019050919050565b6000611918826118ad565b61192281856118b8565b935061192d836118c9565b8060005b8381101561195e57815161194588826118e8565b975061195083611900565b925050600181019050611931565b5085935050505092915050565b600081519050919050565b600082825260208201905092915050565b60005b838110156119a557808201518184015260208101905061198a565b838111156119b4576000848401525b50505050565b6000601f19601f8301169050919050565b60006119d68261196b565b6119e08185611976565b93506119f0818560208601611987565b6119f9816119ba565b840191505092915050565b600061ffff82169050919050565b611a1b81611a04565b82525050565b600060e082019050611a36600083018a61113c565b8181036020830152611a48818961184f565b90508181036040830152611a5c818861190d565b90508181036060830152611a70818761190d565b9050611a7f608083018661113c565b81810360a0830152611a9181856119cb565b9050611aa060c0830184611a12565b98975050505050505050565b7f5361666545524332303a204552433230206f7065726174696f6e20646964206e60008201527f6f74207375636365656400000000000000000000000000000000000000000000602082015250565b6000611b08602a8361145b565b9150611b1382611aac565b604082019050919050565b60006020820190508181036000830152611b3781611afb565b9050919050565b7f416464726573733a20696e73756666696369656e742062616c616e636520666f60008201527f722063616c6c0000000000000000000000000000000000000000000000000000602082015250565b6000611b9a60268361145b565b9150611ba582611b3e565b604082019050919050565b60006020820190508181036000830152611bc981611b8d565b9050919050565b7f416464726573733a2063616c6c20746f206e6f6e2d636f6e7472616374000000600082015250565b6000611c06601d8361145b565b9150611c1182611bd0565b602082019050919050565b60006020820190508181036000830152611c3581611bf9565b9050919050565b600081905092915050565b6000611c528261196b565b611c5c8185611c3c565b9350611c6c818560208601611987565b80840191505092915050565b6000611c848284611c47565b915081905092915050565b600081519050919050565b6000611ca582611c8f565b611caf818561145b565b9350611cbf818560208601611987565b611cc8816119ba565b840191505092915050565b60006020820190508181036000830152611ced8184611c9a565b90509291505056fea2646970667358221220431a125dc100d1b6a49d5ca4b1011e663a74cb84ae7f3ef3767f635325da45c864736f6c634300080b0033",
  "immutableReferences": {
    "1618": [
      {
        "length": 32,
        "start": 583
      }
    ],
    "1621": [
      {
        "length": 32,
        "start": 2064
      },
      {
        "length": 32,
        "start": 2233
      },
      {
        "length": 32,
        "start": 3346
      }
    ]
  },
  "source": "// SPDX-License-Identifier: MIT\npragma solidity >=0.4.22 <0.9.0;\nimport \"@openzeppelin/contracts/access/Ownable.sol\";\nimport \"@openzeppelin/contracts/token/ERC20/ERC20.sol\";\nimport \"./FlashLoanReceiverBase.sol\";\nimport { Withdrawable } from \"./Withdrawable.sol\";\nimport {IMockArbitrage} from \"./Interfaces.sol\";\n \ncontract FirstFlashLoan is FlashLoanReceiverBase,Withdrawable{   \n\n    event UpdatedArbitrageContract (address oldArbitrageContract, address newArbitrageContract);\n\n    IMockArbitrage arbitrageContract;\n    constructor( address _addressProvider,address _arbitrageContract ) FlashLoanReceiverBase(_addressProvider) {\n        arbitrageContract = IMockArbitrage(_arbitrageContract);\n    }\n    \n    \n\n  /**\n     * @dev This function must be called only be the LENDING_POOL and takes care of repaying\n     * active debt positions, migrating collateral and incurring new V2 debt token debt.\n     *\n     * @param assets The array of flash loaned assets used to repay debts.\n     * @param amounts The array of flash loaned asset amounts used to repay debts.\n     * @param premiums The array of premiums incurred as additional debts.\n     * @param initiator The address that initiated the flash loan, unused.\n     * @param params The byte array containing, in this case, the arrays of aTokens and aTokenAmounts.\n     */\n    function executeOperation(\n        address[] calldata assets,\n        uint256[] calldata amounts,\n        uint256[] calldata premiums,\n        address initiator,\n        bytes calldata params\n    )\n        external\n        override\n        returns (bool)\n    {\n        //\n        // This contract now has the funds requested.\n        // Your logic goes here.\n        //\n        \n        // At the end of your logic above, this contract owes\n        // the flashloaned amounts + premiums.\n        // Therefore ensure your contract has enough to repay\n        // these amounts.\n        arbitrageContract.takeArbitrage(assets[0]);\n\n        // approve lending pool to extract debt from the contract.\n        for (uint index = 0; index < assets.length; index++) {\n            uint debt = amounts[index] + premiums[index];\n            ERC20(assets[index]).approve(address(LENDING_POOL), debt);\n        }\n        return true;\n    }\n\n    function _flashLoan(address[] memory assets, uint256[] memory amounts) private {\n        address receiverAddress = address(this);\n        address onBehalfOf = address(this);\n        uint256[] memory modes = new uint256[](assets.length);\n        bytes memory params = \"\";\n        uint16 referralCode = 0;\n\n        // 0 = no debt (flash), 1 = stable, 2 = variable\n        for (uint256 i = 0; i < assets.length; i++) {\n            modes[i] = 0;\n        }\n\n        LENDING_POOL.flashLoan(receiverAddress, assets, amounts, modes, onBehalfOf, params, referralCode);\n    }\n\n    function flashloan(address _asset, uint256 _amount) public onlyOwner {\n        address[] memory assets = new address[](1);\n        uint256[] memory amounts = new uint256[](1);\n        assets[0] = _asset;\n        amounts[0]= _amount;\n\n        _flashLoan(assets, amounts);\n    }\n\n    function setArbitrageContract (address _newArbitrageContract) external {\n        address _previousArbitrageContract = address(arbitrageContract);\n        arbitrageContract = IMockArbitrage(_newArbitrageContract);\n        emit UpdatedArbitrageContract (_previousArbitrageContract, _newArbitrageContract);\n    }\n\n    function test() public view  returns (address){\n        return arbitrageContract.checkSender();\n    }\n}\n",
  "sourcePath": "/Users/bnice/Downloads/blockchainResearch/blockchainDev/DefiPlayground/DefiPlayround/FlashLoan/contracts/FirstFlashLoan.sol",
  "compiler": {
    "name": "solc",
    "version": "0.8.11+commit.d7f03943.Emscripten.clang"
  },
  "schemaVersion": "3.4.5",
  "updatedAt": "2022-04-19T19:27:01.318Z",
  "devdoc": {
    "kind": "dev",
    "methods": {
      "executeOperation(address[],uint256[],uint256[],address,bytes)": {
        "details": "This function must be called only be the LENDING_POOL and takes care of repaying active debt positions, migrating collateral and incurring new V2 debt token debt.",
        "params": {
          "amounts": "The array of flash loaned asset amounts used to repay debts.",
          "assets": "The array of flash loaned assets used to repay debts.",
          "initiator": "The address that initiated the flash loan, unused.",
          "params": "The byte array containing, in this case, the arrays of aTokens and aTokenAmounts.",
          "premiums": "The array of premiums incurred as additional debts."
        }
      },
      "owner()": {
        "details": "Returns the address of the current owner."
      },
      "renounceOwnership()": {
        "details": "Leaves the contract without owner. It will not be possible to call `onlyOwner` functions anymore. Can only be called by the current owner. NOTE: Renouncing ownership will leave the contract without an owner, thereby removing any functionality that is only available to the owner."
      },
      "transferOwnership(address)": {
        "details": "Transfers ownership of the contract to a new account (`newOwner`). Can only be called by the current owner."
      }
    },
    "version": 1
  },
  "userdoc": {
    "kind": "user",
    "methods": {},
    "version": 1
  }
}