{
  "contractName": "MockArbitrage",
  "abi": [
    {
      "inputs": [
        {
          "internalType": "uint256",
          "name": "_requiredFunds",
          "type": "uint256"
        }
      ],
      "stateMutability": "nonpayable",
      "type": "constructor"
    },
    {
      "anonymous": false,
      "inputs": [
        {
          "indexed": false,
          "internalType": "address",
          "name": "taker",
          "type": "address"
        },
        {
          "indexed": false,
          "internalType": "uint256",
          "name": "takerBalance",
          "type": "uint256"
        },
        {
          "indexed": false,
          "internalType": "uint256",
          "name": "amountTaken",
          "type": "uint256"
        }
      ],
      "name": "ArbitrageTaken",
      "type": "event"
    },
    {
      "anonymous": false,
      "inputs": [
        {
          "indexed": true,
          "internalType": "address",
          "name": "_from",
          "type": "address"
        },
        {
          "indexed": true,
          "internalType": "address",
          "name": "_assetAddress",
          "type": "address"
        },
        {
          "indexed": false,
          "internalType": "uint256",
          "name": "amount",
          "type": "uint256"
        }
      ],
      "name": "LogWithdrawal",
      "type": "event"
    },
    {
      "anonymous": false,
      "inputs": [
        {
          "indexed": true,
          "internalType": "address",
          "name": "previousOwner",
          "type": "address"
        },
        {
          "indexed": true,
          "internalType": "address",
          "name": "newOwner",
          "type": "address"
        }
      ],
      "name": "OwnershipTransferred",
      "type": "event"
    },
    {
      "anonymous": false,
      "inputs": [
        {
          "indexed": false,
          "internalType": "uint256",
          "name": "previousRequiredFunds",
          "type": "uint256"
        },
        {
          "indexed": false,
          "internalType": "uint256",
          "name": "newRequiredFunds",
          "type": "uint256"
        }
      ],
      "name": "RequiredFundsChanged",
      "type": "event"
    },
    {
      "inputs": [],
      "name": "owner",
      "outputs": [
        {
          "internalType": "address",
          "name": "",
          "type": "address"
        }
      ],
      "stateMutability": "view",
      "type": "function",
      "constant": true
    },
    {
      "inputs": [],
      "name": "renounceOwnership",
      "outputs": [],
      "stateMutability": "nonpayable",
      "type": "function"
    },
    {
      "inputs": [],
      "name": "requiredFunds",
      "outputs": [
        {
          "internalType": "uint256",
          "name": "",
          "type": "uint256"
        }
      ],
      "stateMutability": "view",
      "type": "function",
      "constant": true
    },
    {
      "inputs": [
        {
          "internalType": "address",
          "name": "newOwner",
          "type": "address"
        }
      ],
      "name": "transferOwnership",
      "outputs": [],
      "stateMutability": "nonpayable",
      "type": "function"
    },
    {
      "inputs": [
        {
          "internalType": "address",
          "name": "_assetAddress",
          "type": "address"
        }
      ],
      "name": "withdraw",
      "outputs": [],
      "stateMutability": "nonpayable",
      "type": "function"
    },
    {
      "inputs": [
        {
          "internalType": "address",
          "name": "_assetAddress",
          "type": "address"
        }
      ],
      "name": "takeArbitrage",
      "outputs": [],
      "stateMutability": "nonpayable",
      "type": "function"
    },
    {
      "inputs": [
        {
          "internalType": "uint256",
          "name": "_requiredFunds",
          "type": "uint256"
        }
      ],
      "name": "setRequiredFunds",
      "outputs": [],
      "stateMutability": "nonpayable",
      "type": "function"
    },
    {
      "inputs": [],
      "name": "checkSender",
      "outputs": [
        {
          "internalType": "address",
          "name": "",
          "type": "address"
        }
      ],
      "stateMutability": "view",
      "type": "function",
      "constant": true
    }
  ],
  "bytecode": "0x60806040523480156200001157600080fd5b506040516200138f3803806200138f833981810160405281019062000037919062000171565b620000576200004b6200006560201b60201c565b6200006d60201b60201c565b8060018190555050620001a3565b600033905090565b60008060009054906101000a900473ffffffffffffffffffffffffffffffffffffffff169050816000806101000a81548173ffffffffffffffffffffffffffffffffffffffff021916908373ffffffffffffffffffffffffffffffffffffffff1602179055508173ffffffffffffffffffffffffffffffffffffffff168173ffffffffffffffffffffffffffffffffffffffff167f8be0079c531659141344cd1fd0a4f28419497f9722a3daafe3b4186f6b6457e060405160405180910390a35050565b600080fd5b6000819050919050565b6200014b8162000136565b81146200015757600080fd5b50565b6000815190506200016b8162000140565b92915050565b6000602082840312156200018a576200018962000131565b5b60006200019a848285016200015a565b91505092915050565b6111dc80620001b36000396000f3fe608060405234801561001057600080fd5b50600436106100885760003560e01c80637ab6acc81161005b5780637ab6acc8146100ef5780638da5cb5b1461010b578063a4457dc114610129578063f2fde38b1461014557610088565b806347fb0bed1461008d57806351cff8d9146100ab578063659f2878146100c7578063715018a6146100e5575b600080fd5b610095610161565b6040516100a29190610b37565b60405180910390f35b6100c560048036038101906100c09190610b83565b610169565b005b6100cf61037b565b6040516100dc9190610bc9565b60405180910390f35b6100ed610381565b005b61010960048036038101906101049190610c10565b610409565b005b610113610454565b6040516101209190610b37565b60405180910390f35b610143600480360381019061013e9190610b83565b61047d565b005b61015f600480360381019061015a9190610b83565b61062f565b005b600033905090565b610171610727565b73ffffffffffffffffffffffffffffffffffffffff1661018f610454565b73ffffffffffffffffffffffffffffffffffffffff16146101e5576040517f08c379a00000000000000000000000000000000000000000000000000000000081526004016101dc90610c9a565b60405180910390fd5b60008073ffffffffffffffffffffffffffffffffffffffff168273ffffffffffffffffffffffffffffffffffffffff16141561026a574790503373ffffffffffffffffffffffffffffffffffffffff166108fc829081150290604051600060405180830381858888f19350505050158015610264573d6000803e3d6000fd5b50610312565b8173ffffffffffffffffffffffffffffffffffffffff166370a08231306040518263ffffffff1660e01b81526004016102a39190610b37565b602060405180830381865afa1580156102c0573d6000803e3d6000fd5b505050506040513d601f19601f820116820180604052508101906102e49190610ccf565b905061031133828473ffffffffffffffffffffffffffffffffffffffff1661072f9092919063ffffffff16565b5b8173ffffffffffffffffffffffffffffffffffffffff163373ffffffffffffffffffffffffffffffffffffffff167f0ec497a8ae5b1ba29c60470ef651def995fac3deebbdcc56c47a4e5f51a4c2bd8360405161036f9190610bc9565b60405180910390a35050565b60015481565b610389610727565b73ffffffffffffffffffffffffffffffffffffffff166103a7610454565b73ffffffffffffffffffffffffffffffffffffffff16146103fd576040517f08c379a00000000000000000000000000000000000000000000000000000000081526004016103f490610c9a565b60405180910390fd5b61040760006107b5565b565b60006001549050816001819055507fea922d0264c93ea657d4e4d57e5baf739bc926ed4aafdab472ef728117ccac8c8183604051610448929190610cfc565b60405180910390a15050565b60008060009054906101000a900473ffffffffffffffffffffffffffffffffffffffff16905090565b600033905060008273ffffffffffffffffffffffffffffffffffffffff166370a08231836040518263ffffffff1660e01b81526004016104bd9190610b37565b602060405180830381865afa1580156104da573d6000803e3d6000fd5b505050506040513d601f19601f820116820180604052508101906104fe9190610ccf565b9050600154811015610545576040517f08c379a000000000000000000000000000000000000000000000000000000000815260040161053c90610d97565b60405180910390fd5b60008373ffffffffffffffffffffffffffffffffffffffff166370a08231306040518263ffffffff1660e01b81526004016105809190610b37565b602060405180830381865afa15801561059d573d6000803e3d6000fd5b505050506040513d601f19601f820116820180604052508101906105c19190610ccf565b90506105ee83828673ffffffffffffffffffffffffffffffffffffffff1661072f9092919063ffffffff16565b7ff59339d45db372cb5bd838c102518f2ee0e557ede3b00b267ba148dd41fa630083838360405161062193929190610db7565b60405180910390a150505050565b610637610727565b73ffffffffffffffffffffffffffffffffffffffff16610655610454565b73ffffffffffffffffffffffffffffffffffffffff16146106ab576040517f08c379a00000000000000000000000000000000000000000000000000000000081526004016106a290610c9a565b60405180910390fd5b600073ffffffffffffffffffffffffffffffffffffffff168173ffffffffffffffffffffffffffffffffffffffff16141561071b576040517f08c379a000000000000000000000000000000000000000000000000000000000815260040161071290610e60565b60405180910390fd5b610724816107b5565b50565b600033905090565b6107b08363a9059cbb60e01b848460405160240161074e929190610e80565b604051602081830303815290604052907bffffffffffffffffffffffffffffffffffffffffffffffffffffffff19166020820180517bffffffffffffffffffffffffffffffffffffffffffffffffffffffff8381831617835250505050610879565b505050565b60008060009054906101000a900473ffffffffffffffffffffffffffffffffffffffff169050816000806101000a81548173ffffffffffffffffffffffffffffffffffffffff021916908373ffffffffffffffffffffffffffffffffffffffff1602179055508173ffffffffffffffffffffffffffffffffffffffff168173ffffffffffffffffffffffffffffffffffffffff167f8be0079c531659141344cd1fd0a4f28419497f9722a3daafe3b4186f6b6457e060405160405180910390a35050565b60006108db826040518060400160405280602081526020017f5361666545524332303a206c6f772d6c6576656c2063616c6c206661696c65648152508573ffffffffffffffffffffffffffffffffffffffff166109409092919063ffffffff16565b905060008151111561093b57808060200190518101906108fb9190610ee1565b61093a576040517f08c379a000000000000000000000000000000000000000000000000000000000815260040161093190610f80565b60405180910390fd5b5b505050565b606061094f8484600085610958565b90509392505050565b60608247101561099d576040517f08c379a000000000000000000000000000000000000000000000000000000000815260040161099490611012565b60405180910390fd5b6109a685610a6c565b6109e5576040517f08c379a00000000000000000000000000000000000000000000000000000000081526004016109dc9061107e565b60405180910390fd5b6000808673ffffffffffffffffffffffffffffffffffffffff168587604051610a0e9190611118565b60006040518083038185875af1925050503d8060008114610a4b576040519150601f19603f3d011682016040523d82523d6000602084013e610a50565b606091505b5091509150610a60828286610a8f565b92505050949350505050565b6000808273ffffffffffffffffffffffffffffffffffffffff163b119050919050565b60608315610a9f57829050610aef565b600083511115610ab25782518084602001fd5b816040517f08c379a0000000000000000000000000000000000000000000000000000000008152600401610ae69190611184565b60405180910390fd5b9392505050565b600073ffffffffffffffffffffffffffffffffffffffff82169050919050565b6000610b2182610af6565b9050919050565b610b3181610b16565b82525050565b6000602082019050610b4c6000830184610b28565b92915050565b600080fd5b610b6081610b16565b8114610b6b57600080fd5b50565b600081359050610b7d81610b57565b92915050565b600060208284031215610b9957610b98610b52565b5b6000610ba784828501610b6e565b91505092915050565b6000819050919050565b610bc381610bb0565b82525050565b6000602082019050610bde6000830184610bba565b92915050565b610bed81610bb0565b8114610bf857600080fd5b50565b600081359050610c0a81610be4565b92915050565b600060208284031215610c2657610c25610b52565b5b6000610c3484828501610bfb565b91505092915050565b600082825260208201905092915050565b7f4f776e61626c653a2063616c6c6572206973206e6f7420746865206f776e6572600082015250565b6000610c84602083610c3d565b9150610c8f82610c4e565b602082019050919050565b60006020820190508181036000830152610cb381610c77565b9050919050565b600081519050610cc981610be4565b92915050565b600060208284031215610ce557610ce4610b52565b5b6000610cf384828501610cba565b91505092915050565b6000604082019050610d116000830185610bba565b610d1e6020830184610bba565b9392505050565b7f496e73756666696369656e742046756e647320746f2074616b6520417262697460008201527f7261676500000000000000000000000000000000000000000000000000000000602082015250565b6000610d81602483610c3d565b9150610d8c82610d25565b604082019050919050565b60006020820190508181036000830152610db081610d74565b9050919050565b6000606082019050610dcc6000830186610b28565b610dd96020830185610bba565b610de66040830184610bba565b949350505050565b7f4f776e61626c653a206e6577206f776e657220697320746865207a65726f206160008201527f6464726573730000000000000000000000000000000000000000000000000000602082015250565b6000610e4a602683610c3d565b9150610e5582610dee565b604082019050919050565b60006020820190508181036000830152610e7981610e3d565b9050919050565b6000604082019050610e956000830185610b28565b610ea26020830184610bba565b9392505050565b60008115159050919050565b610ebe81610ea9565b8114610ec957600080fd5b50565b600081519050610edb81610eb5565b92915050565b600060208284031215610ef757610ef6610b52565b5b6000610f0584828501610ecc565b91505092915050565b7f5361666545524332303a204552433230206f7065726174696f6e20646964206e60008201527f6f74207375636365656400000000000000000000000000000000000000000000602082015250565b6000610f6a602a83610c3d565b9150610f7582610f0e565b604082019050919050565b60006020820190508181036000830152610f9981610f5d565b9050919050565b7f416464726573733a20696e73756666696369656e742062616c616e636520666f60008201527f722063616c6c0000000000000000000000000000000000000000000000000000602082015250565b6000610ffc602683610c3d565b915061100782610fa0565b604082019050919050565b6000602082019050818103600083015261102b81610fef565b9050919050565b7f416464726573733a2063616c6c20746f206e6f6e2d636f6e7472616374000000600082015250565b6000611068601d83610c3d565b915061107382611032565b602082019050919050565b600060208201905081810360008301526110978161105b565b9050919050565b600081519050919050565b600081905092915050565b60005b838110156110d25780820151818401526020810190506110b7565b838111156110e1576000848401525b50505050565b60006110f28261109e565b6110fc81856110a9565b935061110c8185602086016110b4565b80840191505092915050565b600061112482846110e7565b915081905092915050565b600081519050919050565b6000601f19601f8301169050919050565b60006111568261112f565b6111608185610c3d565b93506111708185602086016110b4565b6111798161113a565b840191505092915050565b6000602082019050818103600083015261119e818461114b565b90509291505056fea26469706673582212209f9766cc70cdf6d40fdd793a1e95ede5589f46224860dc0058378636fa79a3e164736f6c634300080b0033",
  "immutableReferences": {},
  "source": "// SPDX-License-Identifier: MIT\npragma solidity >=0.4.22 <0.9.0;\nimport \"@openzeppelin/contracts/access/Ownable.sol\";\nimport \"@openzeppelin/contracts/token/ERC20/ERC20.sol\";\nimport \"@openzeppelin/contracts/token/ERC20/utils/SafeERC20.sol\";\nimport \"./Withdrawable.sol\";\n\ncontract MockArbitrage is Withdrawable {\n  using SafeERC20 for ERC20;\n  event ArbitrageTaken(address taker, uint takerBalance, uint amountTaken);\n  event RequiredFundsChanged(uint previousRequiredFunds, uint newRequiredFunds);\n\n  uint public requiredFunds;\n\n  constructor(uint _requiredFunds) {\n    requiredFunds = _requiredFunds;\n  }\n\n  function takeArbitrage(address _assetAddress) external {\n    address _taker = msg.sender;\n    uint _takerBalance = ERC20(_assetAddress).balanceOf(_taker);\n    require( _takerBalance >= requiredFunds, \"Insufficient Funds to take Arbitrage\");\n\n    uint _assetBalance = ERC20(_assetAddress).balanceOf(address(this));\n    ERC20(_assetAddress).safeTransfer(_taker,_assetBalance);\n    emit ArbitrageTaken(_taker, _takerBalance, _assetBalance);    \n  }\n\n  function setRequiredFunds(uint _requiredFunds) external{\n    uint _previousRequiredFunds = requiredFunds;\n    requiredFunds = _requiredFunds;\n    emit RequiredFundsChanged(_previousRequiredFunds, _requiredFunds);\n  }\n  function checkSender() public view returns (address){\n    return msg.sender;\n  }\n}",
  "sourcePath": "/Users/bnice/Downloads/blockchainResearch/blockchainDev/DefiPlayground/DefiPlayround/FlashLoan/contracts/MockArbitrage.sol",
  "compiler": {
    "name": "solc",
    "version": "0.8.11+commit.d7f03943.Emscripten.clang"
  },
  "schemaVersion": "3.4.5",
  "updatedAt": "2022-04-19T07:45:56.016Z",
  "networkType": "ethereum",
  "devdoc": {
    "kind": "dev",
    "methods": {
      "owner()": {
        "details": "Returns the address of the current owner."
      },
      "renounceOwnership()": {
        "details": "Leaves the contract without owner. It will not be possible to call `onlyOwner` functions anymore. Can only be called by the current owner. NOTE: Renouncing ownership will leave the contract without an owner, thereby removing any functionality that is only available to the owner."
      },
      "transferOwnership(address)": {
        "details": "Transfers ownership of the contract to a new account (`newOwner`). Can only be called by the current owner."
      }
    },
    "version": 1
  },
  "userdoc": {
    "kind": "user",
    "methods": {},
    "version": 1
  }
}