{
  "contractName": "Withdrawable",
  "abi": [
    {
      "anonymous": false,
      "inputs": [
        {
          "indexed": true,
          "internalType": "address",
          "name": "_from",
          "type": "address"
        },
        {
          "indexed": true,
          "internalType": "address",
          "name": "_assetAddress",
          "type": "address"
        },
        {
          "indexed": false,
          "internalType": "uint256",
          "name": "amount",
          "type": "uint256"
        }
      ],
      "name": "LogWithdrawal",
      "type": "event"
    },
    {
      "anonymous": false,
      "inputs": [
        {
          "indexed": true,
          "internalType": "address",
          "name": "previousOwner",
          "type": "address"
        },
        {
          "indexed": true,
          "internalType": "address",
          "name": "newOwner",
          "type": "address"
        }
      ],
      "name": "OwnershipTransferred",
      "type": "event"
    },
    {
      "inputs": [],
      "name": "owner",
      "outputs": [
        {
          "internalType": "address",
          "name": "",
          "type": "address"
        }
      ],
      "stateMutability": "view",
      "type": "function"
    },
    {
      "inputs": [],
      "name": "renounceOwnership",
      "outputs": [],
      "stateMutability": "nonpayable",
      "type": "function"
    },
    {
      "inputs": [
        {
          "internalType": "address",
          "name": "newOwner",
          "type": "address"
        }
      ],
      "name": "transferOwnership",
      "outputs": [],
      "stateMutability": "nonpayable",
      "type": "function"
    },
    {
      "inputs": [
        {
          "internalType": "address",
          "name": "_assetAddress",
          "type": "address"
        }
      ],
      "name": "withdraw",
      "outputs": [],
      "stateMutability": "nonpayable",
      "type": "function"
    }
  ],
  "bytecode": "0x608060405234801561001057600080fd5b5061002d61002261003260201b60201c565b61003a60201b60201c565b6100fe565b600033905090565b60008060009054906101000a900473ffffffffffffffffffffffffffffffffffffffff169050816000806101000a81548173ffffffffffffffffffffffffffffffffffffffff021916908373ffffffffffffffffffffffffffffffffffffffff1602179055508173ffffffffffffffffffffffffffffffffffffffff168173ffffffffffffffffffffffffffffffffffffffff167f8be0079c531659141344cd1fd0a4f28419497f9722a3daafe3b4186f6b6457e060405160405180910390a35050565b610ded8061010d6000396000f3fe608060405234801561001057600080fd5b506004361061004c5760003560e01c806351cff8d914610051578063715018a61461006d5780638da5cb5b14610077578063f2fde38b14610095575b600080fd5b61006b6004803603810190610066919061089e565b6100b1565b005b6100756102c3565b005b61007f61034b565b60405161008c91906108da565b60405180910390f35b6100af60048036038101906100aa919061089e565b610374565b005b6100b961046c565b73ffffffffffffffffffffffffffffffffffffffff166100d761034b565b73ffffffffffffffffffffffffffffffffffffffff161461012d576040517f08c379a000000000000000000000000000000000000000000000000000000000815260040161012490610952565b60405180910390fd5b60008073ffffffffffffffffffffffffffffffffffffffff168273ffffffffffffffffffffffffffffffffffffffff1614156101b2574790503373ffffffffffffffffffffffffffffffffffffffff166108fc829081150290604051600060405180830381858888f193505050501580156101ac573d6000803e3d6000fd5b5061025a565b8173ffffffffffffffffffffffffffffffffffffffff166370a08231306040518263ffffffff1660e01b81526004016101eb91906108da565b602060405180830381865afa158015610208573d6000803e3d6000fd5b505050506040513d601f19601f8201168201806040525081019061022c91906109a8565b905061025933828473ffffffffffffffffffffffffffffffffffffffff166104749092919063ffffffff16565b5b8173ffffffffffffffffffffffffffffffffffffffff163373ffffffffffffffffffffffffffffffffffffffff167f0ec497a8ae5b1ba29c60470ef651def995fac3deebbdcc56c47a4e5f51a4c2bd836040516102b791906109e4565b60405180910390a35050565b6102cb61046c565b73ffffffffffffffffffffffffffffffffffffffff166102e961034b565b73ffffffffffffffffffffffffffffffffffffffff161461033f576040517f08c379a000000000000000000000000000000000000000000000000000000000815260040161033690610952565b60405180910390fd5b61034960006104fa565b565b60008060009054906101000a900473ffffffffffffffffffffffffffffffffffffffff16905090565b61037c61046c565b73ffffffffffffffffffffffffffffffffffffffff1661039a61034b565b73ffffffffffffffffffffffffffffffffffffffff16146103f0576040517f08c379a00000000000000000000000000000000000000000000000000000000081526004016103e790610952565b60405180910390fd5b600073ffffffffffffffffffffffffffffffffffffffff168173ffffffffffffffffffffffffffffffffffffffff161415610460576040517f08c379a000000000000000000000000000000000000000000000000000000000815260040161045790610a71565b60405180910390fd5b610469816104fa565b50565b600033905090565b6104f58363a9059cbb60e01b8484604051602401610493929190610a91565b604051602081830303815290604052907bffffffffffffffffffffffffffffffffffffffffffffffffffffffff19166020820180517bffffffffffffffffffffffffffffffffffffffffffffffffffffffff83818316178352505050506105be565b505050565b60008060009054906101000a900473ffffffffffffffffffffffffffffffffffffffff169050816000806101000a81548173ffffffffffffffffffffffffffffffffffffffff021916908373ffffffffffffffffffffffffffffffffffffffff1602179055508173ffffffffffffffffffffffffffffffffffffffff168173ffffffffffffffffffffffffffffffffffffffff167f8be0079c531659141344cd1fd0a4f28419497f9722a3daafe3b4186f6b6457e060405160405180910390a35050565b6000610620826040518060400160405280602081526020017f5361666545524332303a206c6f772d6c6576656c2063616c6c206661696c65648152508573ffffffffffffffffffffffffffffffffffffffff166106859092919063ffffffff16565b905060008151111561068057808060200190518101906106409190610af2565b61067f576040517f08c379a000000000000000000000000000000000000000000000000000000000815260040161067690610b91565b60405180910390fd5b5b505050565b6060610694848460008561069d565b90509392505050565b6060824710156106e2576040517f08c379a00000000000000000000000000000000000000000000000000000000081526004016106d990610c23565b60405180910390fd5b6106eb856107b1565b61072a576040517f08c379a000000000000000000000000000000000000000000000000000000000815260040161072190610c8f565b60405180910390fd5b6000808673ffffffffffffffffffffffffffffffffffffffff1685876040516107539190610d29565b60006040518083038185875af1925050503d8060008114610790576040519150601f19603f3d011682016040523d82523d6000602084013e610795565b606091505b50915091506107a58282866107d4565b92505050949350505050565b6000808273ffffffffffffffffffffffffffffffffffffffff163b119050919050565b606083156107e457829050610834565b6000835111156107f75782518084602001fd5b816040517f08c379a000000000000000000000000000000000000000000000000000000000815260040161082b9190610d95565b60405180910390fd5b9392505050565b600080fd5b600073ffffffffffffffffffffffffffffffffffffffff82169050919050565b600061086b82610840565b9050919050565b61087b81610860565b811461088657600080fd5b50565b60008135905061089881610872565b92915050565b6000602082840312156108b4576108b361083b565b5b60006108c284828501610889565b91505092915050565b6108d481610860565b82525050565b60006020820190506108ef60008301846108cb565b92915050565b600082825260208201905092915050565b7f4f776e61626c653a2063616c6c6572206973206e6f7420746865206f776e6572600082015250565b600061093c6020836108f5565b915061094782610906565b602082019050919050565b6000602082019050818103600083015261096b8161092f565b9050919050565b6000819050919050565b61098581610972565b811461099057600080fd5b50565b6000815190506109a28161097c565b92915050565b6000602082840312156109be576109bd61083b565b5b60006109cc84828501610993565b91505092915050565b6109de81610972565b82525050565b60006020820190506109f960008301846109d5565b92915050565b7f4f776e61626c653a206e6577206f776e657220697320746865207a65726f206160008201527f6464726573730000000000000000000000000000000000000000000000000000602082015250565b6000610a5b6026836108f5565b9150610a66826109ff565b604082019050919050565b60006020820190508181036000830152610a8a81610a4e565b9050919050565b6000604082019050610aa660008301856108cb565b610ab360208301846109d5565b9392505050565b60008115159050919050565b610acf81610aba565b8114610ada57600080fd5b50565b600081519050610aec81610ac6565b92915050565b600060208284031215610b0857610b0761083b565b5b6000610b1684828501610add565b91505092915050565b7f5361666545524332303a204552433230206f7065726174696f6e20646964206e60008201527f6f74207375636365656400000000000000000000000000000000000000000000602082015250565b6000610b7b602a836108f5565b9150610b8682610b1f565b604082019050919050565b60006020820190508181036000830152610baa81610b6e565b9050919050565b7f416464726573733a20696e73756666696369656e742062616c616e636520666f60008201527f722063616c6c0000000000000000000000000000000000000000000000000000602082015250565b6000610c0d6026836108f5565b9150610c1882610bb1565b604082019050919050565b60006020820190508181036000830152610c3c81610c00565b9050919050565b7f416464726573733a2063616c6c20746f206e6f6e2d636f6e7472616374000000600082015250565b6000610c79601d836108f5565b9150610c8482610c43565b602082019050919050565b60006020820190508181036000830152610ca881610c6c565b9050919050565b600081519050919050565b600081905092915050565b60005b83811015610ce3578082015181840152602081019050610cc8565b83811115610cf2576000848401525b50505050565b6000610d0382610caf565b610d0d8185610cba565b9350610d1d818560208601610cc5565b80840191505092915050565b6000610d358284610cf8565b915081905092915050565b600081519050919050565b6000601f19601f8301169050919050565b6000610d6782610d40565b610d7181856108f5565b9350610d81818560208601610cc5565b610d8a81610d4b565b840191505092915050565b60006020820190508181036000830152610daf8184610d5c565b90509291505056fea264697066735822122086bbb17c73d16569353a80e7405e6faf0775fd38cbe3602bbed1fa1c40a0d36764736f6c634300080b0033",
  "immutableReferences": {},
  "source": "// SPDX-License-Identifier: MIT\npragma solidity >=0.4.22 <0.9.0;\n\nimport \"@openzeppelin/contracts/access/Ownable.sol\";\nimport \"@openzeppelin/contracts/token/ERC20/ERC20.sol\";\nimport \"@openzeppelin/contracts/token/ERC20/utils/SafeERC20.sol\";\n\n/* Witdraws stuck assets from a contract */\ncontract Withdrawable is Ownable {\n    using SafeERC20 for ERC20;\n\n    address constant ETHER = address(0);\n\n    event LogWithdrawal(\n        address indexed _from,\n        address indexed _assetAddress,\n        uint256 amount\n    );\n\n    function withdraw(address _assetAddress) public onlyOwner {\n        uint256 assetBalance;\n        if (_assetAddress == ETHER) {\n            assetBalance = address(this).balance;\n            payable(msg.sender).transfer(assetBalance);\n        } else {\n            assetBalance = ERC20(_assetAddress).balanceOf(address(this));\n            ERC20(_assetAddress).safeTransfer(msg.sender, assetBalance);\n        }\n        emit LogWithdrawal(msg.sender, _assetAddress, assetBalance);\n    }\n}\n",
  "sourcePath": "/Users/bnice/Downloads/blockchainResearch/blockchainDev/DefiPlayground/DefiPlayround/FlashLoan/contracts/Withdrawable.sol",
  "compiler": {
    "name": "solc",
    "version": "0.8.11+commit.d7f03943.Emscripten.clang"
  },
  "schemaVersion": "3.4.5",
  "updatedAt": "2022-04-19T07:40:23.755Z",
  "devdoc": {
    "kind": "dev",
    "methods": {
      "owner()": {
        "details": "Returns the address of the current owner."
      },
      "renounceOwnership()": {
        "details": "Leaves the contract without owner. It will not be possible to call `onlyOwner` functions anymore. Can only be called by the current owner. NOTE: Renouncing ownership will leave the contract without an owner, thereby removing any functionality that is only available to the owner."
      },
      "transferOwnership(address)": {
        "details": "Transfers ownership of the contract to a new account (`newOwner`). Can only be called by the current owner."
      }
    },
    "version": 1
  },
  "userdoc": {
    "kind": "user",
    "methods": {},
    "version": 1
  }
}